:020000040800F2
:100000002018002045010008C539000849380008BB
:100010008D390008C5130008A18200080000000007
:100020000000000000000000000000002947000858
:10003000F925000800000000B53A00083D660008F8
:10004000018300085F0100085F010008A940000863
:100050005F0100085F0100085F0100085F01000800
:100060005F0100085F0100085F0100085F010008F0
:100070005F0100085F0100085F0100085F010008E0
:100080005F0100085F0100085F0100085F010008D0
:100090005F0100085F0100085F0100085F010008C0
:1000A0005F0100085F0100085F0100085F010008B0
:1000B0005F010008156900085F0100085F01000882
:1000C0005F0100085F0100085F0100085F01000890
:1000D0005F010008D17A0008717B0008817C00086C
:1000E0005F0100085F0100085F0100085F01000870
:1000F0005F0100085F0100085F0100085F01000860
:100100005F0100085F0100085F0100085F0100084F
:10011000BD7800085F0100085F0100085F0100086A
:100120005F0100085F0100085F0100085F0100082F
:10013000DFF80CD000F0C4FC004800472D96000802
:10014000201800200648804706480047FEE7FEE7E3
:10015000FEE7FEE7FEE7FEE7FEE7FEE7FEE7FEE777
:10016000C16600083101000840EA01039B0703D083
:1001700009E008C9121F08C0042AFAD203E011F8E6
:10018000013B00F8013B521EF9D27047D2B201E0A8
:1001900000F8012B491EFBD270470022F6E710B58C
:1001A00013460A4604461946FFF7F0FF204610BDE5
:1001B000421E12F8013F002BFBD111F8013B02F85F
:1001C000013B002BF9D17047421C10F8011B00299C
:1001D000FBD1801A7047F0B480EA0102D40F4200CC
:1001E000B2EB410F02D20246084611464A0042D005
:1001F000C30DDDB2C1F3C752AD1A202D35DAC1F3FC
:10020000160141F4000204B15242C5F1200602FA7F
:1002100006F12A411044B3EBD05F23D0C4B1012DC5
:10022000A0EBC35009DCF0BC4FF0004202EAC3521D
:1002300000F50000DBB200F088BB400000F18070E8
:1002400000EBC350A0F1807040EAD170490009E092
:10025000490841EAC071A0EBC35000F50000400816
:1002600000EBC350F0BC00F067BB6142012202EB1F
:100270004101001BF6E7F0BC704781F00041AAE79E
:1002800080F00040A7E780EA010210B502F00043C9
:10029000400026D04A0023D04FEA106101EB1261E2
:1002A000C0F35600C2F3560240F4000042F40002CC
:1002B000A0FB0220A1F17F014FEA0040140401D00D
:1002C00000F1010050EA124001D44000491EC2B2C0
:1002D0000C0604EBD010401C4008802A02D003E03A
:1002E000002010BD20F00100002900DA0020184392
:1002F00010BD30B480EA010202F0004530F0004247
:1003000021F0004015D0A0B1C0F3C753C2F3C754C9
:10031000C2F31601C0F31600E41A41F4000140F4E0
:1003200000027D34914201D3641C00E04900002C9E
:1003300002DA30BC002070474FF4000000239142E5
:1003400001D3891A034340084FEA4101F7D151B163
:10035000914202D14FF0004105E002D24FF001017D
:1003600001E06FF0010103EBC450284430BC00F001
:10037000E3BA2DE9FE4F804681EA0300C00F0C4628
:10038000009021F0004123F00045B8EB0200A941A4
:1003900005D24046214690461C460B46024623F0B5
:1003A0000040104304D14046214603B0BDE8F08F21
:1003B000270DC7F30A00C3F30A510290401A0190B7
:1003C000402866DAC3F3130040F4801B009892467D
:1003D00020B10023D2EB030A63EB0B0B01985946C3
:1003E000C0F14002504600F076FA06460D465046EF
:1003F0005946019A00F08EFA10EB08006141002482
:1004000087EA115284EAE7731A433BD0009A3AB361
:10041000019A012A4FEA075210DC001B61EB02012E
:100420004FF0004202EA0752CDE90042001C41F5BC
:10043000801132462B4600F0C2FAB6E7001B61EB92
:100440000201001C41F5801300185B412018A2F541
:10045000001747EB030140EAD570B6196D4111E072
:100460006D084FEA360645EAC0754FEA0752001B91
:1004700061EB0201001C41F5801149084FEA300090
:100480000019514132462B4603B0BDE8F04F00F051
:1004900089BA0098012240000023D0EB020263EBEE
:1004A000E073009821464FEAE074B8EB000061EB7E
:1004B0000401E9E783F000435BE781F0004158E77E
:1004C0002DE9FE4F81EA030404F0004421F00041CD
:1004D00000944FF0000B23F0004350EA010402D0D7
:1004E00052EA030404D10020014603B0BDE8F08FB6
:1004F000C3F30A54C1F30A552C44A4F2F334019413
:10050000A0FB0254C1F3130141F48011C3F31303A0
:1005100043F4801301FB024400FB034E840A970A54
:1005200044EA815447EA8357A4FB076802958D0A81
:1005300005FB07854FEA932C04FB0C542705029D0D
:100540004FEA065847EA1637B5EB08056EEB070C7D
:10055000870E920E47EA811742EA8312A7FB020137
:10056000B6EB0B0164EB00042B0D43EA0C335E1871
:1005700044EB1C50DA465146E7FB0201C5F3130475
:100580004FEA0B3343EA14534FEA0432019C43EA27
:100590000603A4F10C040294009CCDE900B400F021
:1005A0000EFAA2E72DE9F04D81EA030404F0004BB6
:1005B00021F0004514464FF0000A23F0004150EAB4
:1005C000050220D054EA01021DD0C5F30A570246A5
:1005D000C5F31303C1F31300C1F30A5640F48015A9
:1005E00043F48013A7EB0608101BD64608F2FD382B
:1005F00073EB050002D308F1010801E092185B419A
:10060000B8F1000F03DA00200146BDE8F08D0020AC
:100610004FF48011064684460EE0171B73EB050766
:1006200005D3121B63EB050306434CEA010C490892
:100630004FEA300092185B4150EA0107EDD152EACF
:10064000030012D082EA040083EA0501084303D1C3
:1006500000224FF0004308E0101BAB4102D2012200
:10066000002302E06FF0010253101AEB06004CEB7E
:10067000085110EB0A0041EB0B01BDE8F04D00F012
:1006800091B9C10F80EAE0700844CA07962300219F
:1006900000F05BB996230022114600F056B90EB562
:1006A000C10F80EAE0700844CA07002140F23343DA
:1006B0008DE80E000A460B4600F081F903B000BD3C
:1006C0000EB540F2334102910021CDE900110A46F6
:1006D0000B4600F074F903B000BD20F00040C10DDE
:1006E000C0F3160040F400007F2901DA00207047B3
:1006F000962903DCC1F19601C840704796398840BD
:10070000704770B5C1F30A5201F000450024C1F3EF
:10071000130140F2FF3341F480119A4201DA0020C4
:1007200070BD40F233439A42A2F2334203DC52429C
:1007300000F0E0F800E090402C43F1D0404270BD62
:10074000C1F30A5210B5C1F3130140F2FF3341F473
:1007500080119A4201DA002010BD40F233439A42E0
:10076000A2F2334203DC524200F0C4F810BD9040C4
:1007700010BD00F0004230F000400AD0C10D01F57C
:100780006071C0F3160042EA0151C20840071143EC
:10079000704700200146704730B5002904DB4FF058
:1007A0000044404264EB0101002B04DB4FF00044A5
:1007B000524264EB03038B4208BF824230BD00000B
:1007C00030B5002904DB4FF00044404264EB0101E6
:1007D000002B04DB4FF00044524264EB03039942C8
:1007E00008BF904230BD000001F0004330B421F05A
:1007F000004150EA010206D00A0DA2F56072C1F371
:100800001301002A02DC30BC00207047440F44EA88
:10081000C104C100E01830BC00EBC25000F08CB83D
:10082000002801DBC0F10040002901DBC1F10041DB
:1008300081427047002801DBC0F10040002901DB44
:10084000C1F100418842704730B50B460146002097
:100850002022012409E021FA02F59D4205D303FA82
:1008600002F5491B04FA02F52844151EA2F1010203
:10087000F1DC30BD2DE9F05F0546002092469B4635
:1008800088460646814640241BE0284641464746A6
:10089000224600F02FF853465A46C01A914110D311
:1008A00011461846224600F016F82D1A67EB01088B
:1008B0004F4622460120002100F00DF817EB0009F9
:1008C0004E41201EA4F10104DFDC484631462A4691
:1008D0004346BDE8F09F202A04DB203A00FA02F1EB
:1008E000002070479140C2F1200320FA03F319431E
:1008F00090407047202A04DB203A21FA02F00021C0
:10090000704721FA02F3D040C2F12002914008431F
:1009100019467047202A06DBCB17203A41FA02F02D
:1009200043EAE07306E041FA02F3D040C2F120024C
:1009300091400843194670470029A8BF7047401CE2
:10094000490008BF20F00100704710B4B0FA80FCE5
:1009500000FA0CF050EA010404BF10BC704749B122
:10096000CCF1200421FA04F411FA0CF118BF012192
:1009700021430843A3EB0C01CB1D0106000A002B09
:10098000BEBF002010BC704700EBC35010440029CC
:10099000A4BF10BC7047401C490008BF20F00100F4
:1009A00010BC704710B5002B08DA401C41F1000163
:1009B00092185B411A4301D120F0010010BD2DE9CE
:1009C000F04D92469B4611B1B1FA81F202E0B0FAC5
:1009D00080F220329046FFF77EFF04460F4640EA41
:1009E0000A0041EA0B0153465A46084303D1204608
:1009F0003946BDE8F08D114653EA010015D0C8F123
:100A000040025046FFF776FF05460E4650465946CF
:100A10004246FFF760FF084301D0012000E00020BC
:100A2000054346EAE0762C4337430A984FEA44539D
:100A3000A0EB08004FEAD4240A304FF0000244EA49
:100A400047544FEAD72502D500200146D1E70105DA
:100A500010196941DDE9084500196941BDE8F04D0B
:100A6000A0E770B521F0004303430CD0C1F30A5551
:100A70000024D5EB040564EB0403D617AD1AB3418B
:100A800002DB0020014670BD201841EB025170BD11
:100A9000C1F30A52C1F3130140F2FF3341F4801154
:100AA0009A4202DA00200146704740F233439A42EC
:100AB000A2F2334202DC5242FFF71CBFFFF70BBF2A
:100AC000064C074D06E0E06840F0010394E807009B
:100AD00098471034AC42F6D3FFF72EFB40A900082C
:100AE00060A900082DE9F04D00231A461B1A8A411F
:100AF00003DB00200146BDE8F08DC1F30A52C1F3CB
:100B0000130141F480154FF0000BD10702D10018FA
:100B10006D41521E0027044640F2FF11384601EB9A
:100B2000620A3E468046024600204FF48011FFF7DD
:100B3000E1FEC2197141BB1846EB0100B4EB030C96
:100B400075EB000C04D3E41A65EB000517460E465E
:100B5000241908F101006D4180463428E3DDF919BC
:100B600046EB0600091BA84103D24FF0FF321346A3
:100B700001E0002213461BEB070046EB0A51BDE8DB
:100B8000F04DFFF70FBF21B1826842F00102826091
:100B900003E0826822F001028260704721B182681E
:100BA00042F48072826003E0826822F48072826084
:100BB0007047014600208A6812F0040F01D001201E
:100BC00000E000207047014600208A6812F0080FFC
:100BD00001D0012000E000207047000030B502463F
:100BE0000020002350680F4C20400D790C6844EA27
:100BF00005242043506090680B4C2040D1E90254FA
:100C00002C434D7944EA450420439060D06A20F497
:100C100070000C7C641EE4B2234340EA0350D062AF
:100C200030BD0000FFFEF0FFFDF7F1FFF0B5044618
:100C30000D4600200021092D11DDE068A5F10A060E
:100C400006EB4607072606FA07F18843A5F10A06D0
:100C500006EB460603FA06F10843E0600CE0206963
:100C600005EB4507072606FA07F1884305EB45061D
:100C700003FA06F108432061072A0FDA606B561E5B
:100C800006EB86071F2606FA07F18843561E06EB79
:100C9000860605FA06F10843606322E00D2A0FDAA2
:100CA000206BD61F06EB86071F2606FA07F188433E
:100CB000D61F06EB860605FA06F10843206310E00E
:100CC000E06AA2F10D0606EB86071F2606FA07F179
:100CD0008843A2F10D0606EB860605FA06F10843E5
:100CE000E062F0BD816841F008018160704721B188
:100CF000826842F4A002826003E0826822F4A002CB
:100D000082607047816841F0040181607047000093
:100D100000B591B001F0F4FD36A007F05FFB3B4851
:100D200001F028F83A4801903A48029000200390D8
:100D3000012004900020059006904FF480700790E9
:100D4000800008902020099000020A9000200B905B
:100D500001A92E4801F0B4F801212C4800F0FEFF53
:100D600000200C908DF8340001208DF835004FF4F0
:100D700060200E9000200F9001208DF840000CA9FB
:100D800023484C38FFF72AFF4FF4404002F0EEFFB3
:100D90000523012208211E484C38FFF747FF012197
:100DA0001B484C38FFF7FAFE012119484C38FFF771
:100DB000EAFE17484C38FFF795FF00BF14484C383F
:100DC000FFF701FF0028F9D111484C38FFF79AFFCF
:100DD00000BF0F484C38FFF7ECFE0028F9D1012185
:100DE0000B484C38FFF783FF0BA007F0F7FA11B060
:100DF00000BD00000D0A456E746572204144432019
:100E0000436F6E666967210D0A000000080002400A
:100E10004C2401409E0000200D0A456E6420414490
:100E20004320436F6E666967210D0A002DE9F0418A
:100E300004460D461646FF2C03D90CA007F0CEFA47
:100E4000FF240F2D03D90EA007F0C8FA0F250F2E8F
:100E500003D910A007F0C2FA0F26200400EB0530DA
:100E600000EB06273846BDE8F0810000626C6F6336
:100E70006B206D6178203A32353621210000000068
:100E8000736563746F72206D6178203A3136212169
:100E90000000000070616765206D6178203A31368E
:100EA000212100002DE9FF4F8BB006461F46EC487C
:100EB0000A900020099008908346012005900024A4
:100EC0004FF0000900254FF000080020049010208A
:100ED00003900C200290E3A007F080FA0A98099092
:100EE00040F24F110998FFF758F9A320DC49087028
:100EF0002020487000BF06E00C98015DD848001D16
:100F00000155601CC4B2062CF6DB0120D44988725E
:100F10000D9808F0E4FCD249A1F80B0040F284409F
:100F2000A1F80D00B1F80D0008F0D9FCCC49A1F8EA
:100F30000D000120C8730C200490D34808F0C2FCB7
:100F4000C749C1F826010121C548A0F82A11CF4898
:100F5000017AC34880F82C1190F82A110498801D5A
:100F60000844C0B20490CA4808F0ACFCBC4908610F
:100F70000321BB488182C748007DA0F5FA60C1B259
:100F8000B7488175C348017CB548C175C148017B2C
:100F9000B3480176017D0498801D0844C0B20490D6
:100FA00000240020AE4981F84E010498488071E089
:100FB000072006AB00220090B7480178012001F01D
:100FC0003DFA9DF819109DF8180001EB0020C4EBC4
:100FD000C401394408804FF000090DE009F1020016
:100FE00006A9095CC4EBC4003844801C00F8091051
:100FF00009F1010000F0FF09B9F1040FEEDBC4EBC9
:10100000C40038440088A149098800EBC120A0F140
:101010006C5004EB44029249363101EB82010860C6
:1010200004EB44028E49363101EB8201086808F076
:1010300049FC04EB44028A49363101EB8201086025
:10104000042104EB44028648363000EB82008180A4
:10105000C4EBC4003844D0F8021004EB44028048CA
:10106000363000EB8200C0F806107D4890F84E0143
:10107000401C7B4981F84E010846418804EB44023C
:10108000363000EB820080880844801D7449488017
:10109000601CC4B2012C8BDB7149488808F01FFC2E
:1010A0006F494880102230460999FFF75DF81025F6
:1010B0007A4809906A4890F82A01801D00F0FF08DC
:1010C0006749B1F82A0108F00AFC6549A1F82A012C
:1010D000701942460999FFF747F805EB0800C5B2B9
:1010E0005F48103009901038007D801D00F0FF0827
:1010F0005B49888A08F0F3FB594988827019424697
:101100000999FFF731F805EB0800C5B2002430E07B
:1011100004EB44015248363000EB8100099004EBA7
:1011200044014F48363000EB81000079801D00F00B
:10113000FF0805EB0800B0F5F87F00DD1EE004EBCA
:1011400044024749363101EB8201888808F0C7FB29
:1011500004EB44024249363101EB82018880701968
:1011600042460999FFF700F805EB0800C5B2601C7C
:10117000C4B23B4890F84E01A042C9DC00BF4FF614
:10118000FF703749A1F84C01084690F84C212846D9
:10119000691CCDB232543248B0F84C0102122846D4
:1011A000691CCDB232542946304600F025F91FFAA9
:1011B00080FB2B48A0F84CB1A81E06F800B04FEAFF
:1011C0002B21681E31543148C079002803DD2F4897
:1011D000C079059001E001200590002425E04FF042
:1011E000000A08E016F80A102DA007F0F7F80AF137
:1011F000010000F0FF0AAA45F4DB2946304603F05F
:10120000ADFA0890089801280ED1274800780128E7
:1012100007D10320DDE90C1200F06AFF23490870B2
:1012200002E0234801F006FA02E005988442D6DB8A
:1012300000BF1E4801781FA007F0D0F8294625A05E
:1012400007F0CCF8002405E0315D28A007F0C6F8CF
:10125000601CC4B2AC42F7DB0FB0BDE8F08F0000F9
:10126000F70E00200D0A46554E4354494F4E3A2082
:10127000416C61726D5265706F727420737461722B
:101280007421200D0A00000020000060A80000204A
:101290005000001088030020400000201D10002096
:1012A0002A2A25782A2A0000360000202C00002057
:1012B000C0C62D000D0A2D2D2D2D53656E64446181
:1012C00074615F466C61673A25642D2D2D2D0D0AE2
:1012D000000000000D0A2D2D2D2D4C656E677468E1
:1012E0003A25642D2D2D2D0D0A0000002D25782D79
:1012F0000000000030B5B3B00446C82101A8FEF7D5
:101300004CFFC82101A8FEF748FF124B12A2C821CA
:1013100001A807F073F801A808F08AFA124801F052
:1013200089F9C82101A8FEF738FF2046FEF74CFFD7
:1013300005462B462246C72101A807F05FF801A801
:1013400003F052FA01A808F073FA084801F072F9A4
:1013500033B030BDB800002041542B434D47533DBE
:10136000222573220000000020A1070040420F0048
:1013700010B5012002F056FD002002F053FD10BD13
:1013800008B50146002000900348009000980844EA
:1013900000900098008808BD006C0040014908607A
:1013A0007047000000860D4208B500220092044AF2
:1013B0000092009A02440092009A116008BD000059
:1013C000006C004010B503E003A007F007F800E050
:1013D000FAE700BF10BD00000D0A5761726E6E691A
:1013E0006E672121204275734661756C74204F63CE
:1013F00063757265640D0A00F0B505460E464FF63A
:10140000FF7418E0287802F01DFF84EA002400270A
:101410000EE014F4004F05D048F2050080EA4400C5
:1014200084B203E04FF6FF7000EA4404781CC7B2B0
:10143000082FEEDB6D1C3000A6F101018EB2E1D168
:10144000204602F00FFFF0BD2DE9F04F87B00646B1
:101450008A46934601200690774805904FF0000891
:10146000C14600240025012004900027102003908D
:101470000C2002900020019070A006F0AFFF002029
:1014800075490870DDF8148040F20B314046FEF7D4
:1014900084FEA320684908702020487000BF06E041
:1014A0001AF804106448001D0155601CC4B2062CD3
:1014B000F6DB012060498872584608F010FA5E4950
:1014C000A1F80B0040F68450A1F80D00B1F80D0012
:1014D00008F005FA5849A1F80D000120C8735F48CB
:1014E00008F0F0F95449086101215348818281755F
:1014F0000120514981F80A030846808A1230488049
:10150000488808F0ECF94C4948804FF6FF70A1F884
:101510000803102241463046FEF726FE002410251F
:1015200034E004EB440000EB04114348103000EBBE
:10153000410804EB440000EB04113F48103000EB7D
:1015400041000079801DC7B2E819B0F5F87F00DDD1
:1015500021E004EB440101EB04123749103101EBA7
:101560004201888808F0BBF904EB440101EB041246
:101570003149103101EB4201888070193A464146E9
:10158000FEF7F2FDE819C5B2601CC4B22A4890F813
:101590000A03A042C5DC00BF274890F8082328466C
:1015A000691CCDB232542448B0F808030212284610
:1015B000691CCDB2325429463046FFF71DFF1FFA91
:1015C00080F91D48A0F80893A81E06F800904FEA7D
:1015D0002921681E31542248C079002803DD2048A3
:1015E000C079049001E00120049000241AE029460B
:1015F000304603F0B3F80190019801280ED1194844
:101600000078012807D15A465146032000F070FDAA
:1016100015A006F0E3FE1B4801F00CF81A4801F093
:1016200009F802E004988442E1DB00BF17A006F04D
:10163000D5FE07B0BDE8F08FEC0B00200D0A436C1F
:1016400069656E742053746172742052657175659A
:101650007374210D0A0000004F00002000020010EA
:10166000A8000020360000200D0AB5DAB6FEB4CE80
:10167000BDD3CAD5B2E9B5BDCAFDBEDD21210D0A73
:1016800000000000C0C62D0020A107000D0A436C19
:1016900069656E742020456E6420526571756573AE
:1016A00074210D0A000000002DE9F04385B00446C6
:1016B00000200190029003900490002600258146AE
:1016C000F0A006F08BFE0020FFF768FE0220F54B2D
:1016D000002201460090104600F0B0FEF1483E386E
:1016E00090F83F1090F83E0001EB002085B22946AB
:1016F000EDA006F073FE002D03DD3C2D01DC2580FE
:1017000001E00F2020802188EEA006F067FE022075
:10171000E44B9B1C002203210090104600F08EFE3B
:10172000E0483E3890F8411090F8400001EB00206E
:1017300085B22946DCA006F051FE002D04DDB5F58A
:10174000B46F01DC658001E03C2060806188ECA022
:1017500006F044FE0F20D34B2E3B002204210090C4
:10176000104600F06BFE00250DE0CE482E38405D9F
:10177000302807DBCB482E38405D392802DC681C56
:1017800085B200E001E00F2DEFDB00BFEEB20B2EC3
:1017900003D00D2E01D00F2E11D1C2483E38007C4F
:1017A00038280CD1BF483E38407C362807D1324615
:1017B000BC492E3904F11000FEF7D6FC05E00F22DB
:1017C000DDA104F11000FEF7CFFC04F11001DE48AA
:1017D00006F004FE0F20B34B1E3B002205210090B3
:1017E000104600F02BFEAF481E38FEF7EDFCC6B2E7
:1017F000002512E0AB481E38405D302804DBA948C4
:101800001E38405D392804DDA6481E38405D2E286C
:1018100002D1681C85B200E001E00F2DEADB00BFB9
:10182000EEB2092E01DD012000E000200F2807DACA
:1018300032469C491E3904F12000FEF795FC05E074
:101840000E22C2A104F12000FEF78EFC04F120015B
:10185000C2A006F0C3FD0520924B0E3B00220621DC
:101860000090104600F0EAFD00250DE08D480E388E
:10187000405D302807DB8B480E38405D392802DC9C
:10188000681C85B200E001E0052DEFDB00BFEEB281
:10189000002E07DD324683490E3904F13000FEF791
:1018A00063FC02E0BDA00068206304F13001A6489B
:1018B000443006F093FD04207A4B083B00220721B8
:1018C0000090104600F0BAFD76483E38D0F83690C9
:1018D0004846FEF74EFF07463A460B46B1A006F0D3
:1018E0007DFD4846FEF745FF074600221346FEF7FA
:1018F00067FF0FD24846FEF73CFF07460022B14B78
:10190000FEF74AFF06D267483E38D0F83600C4F8E2
:10191000360002E0AC48C4F83600D4F83600FEF7D2
:1019200028FF07463A460B46A8A006F057FD0220BE
:101930005C4B1B1D002208210090104600F07EFD2C
:1019400058483E3890F8431090F8420001EB0020D0
:1019500085B22946ACA006F041FD002D04DBB5F5AB
:10196000B46F01DCA58001E00020A080A188B0A0B8
:1019700006F034FD01204B4B9B1D002209210090F5
:10198000104600F05BFD47483E3890F84450294629
:10199000B7A006F023FD2946BEA006F01FFD0120DA
:1019A000404BDB1D00220A210090104600F046FD4E
:1019B0003C483E3890F84510C5A006F00FFD394868
:1019C0003E3890F84550002D03DD0A2D01DCE5710D
:1019D00001E00320E071E179C6A006F0FFFC0420DD
:1019E000304B1B1F00220B210090104600F026FDFB
:1019F0002C493E39D1F83A00FEF7BBFE07463A467D
:101A00000B46CAA006F0EAFC26483E38D0F83A90C9
:101A10004846FEF7AEFE074600221346FEF7D0FE0C
:101A200013D24846FEF7A5FE07460022C94BFEF733
:101A3000B3FE0AD21B483E38D0F836104846FEF7AF
:101A4000F9FE02D2C4F83A9002E0C348C4F83A0062
:101A5000D4F83A00FEF78DFE07463A460B463A4860
:101A6000883006F0BBFC00206072A072E072207328
:101A70006073A073642020720020E07305B0BDE89D
:101A8000F08300000D0A436F6E66696744617461FC
:101A90005F496E69742073746172742E2E2E0D0A64
:101AA00000000000240100202D2D2D2D2D2D2D2D89
:101AB0002D2D2D2D25642D2D2D2D2D2D2D2D2D2D27
:101AC0002D2D0000526561642066726F6D20666C7A
:101AD00061736820436F6E666967446174612E4369
:101AE0006F6C6C656374506572696F642066696EB3
:101AF00069736821202D2D3E3E2025640D0A0000CB
:101B0000526561642066726F6D20666C6173682037
:101B1000436F6E666967446174612E53656E6443FA
:101B20006F756E742066696E69736821202D2D3E75
:101B30003E2025640D0A0000383631303634363107
:101B40003731373830303400A4A700083131392E0E
:101B50003235342E3130332E383000005265616416
:101B60002066726F6D20666C61736820436F6E66CD
:101B70006967446174612E534D535F5365745F53BD
:101B8000657276657249502066696E6973682120B6
:101B9000202D2D3E3E2025730D0A000032303230BC
:101BA000000000000D0A2D2D2D72656164206C6F00
:101BB00077206C6576656C202D2D2D25662D2D2DBD
:101BC0002D0D0A00000039400000C84152656164D3
:101BD0002066726F6D20666C61736820436F6E665D
:101BE0006967446174612E7468726573686F6C64B0
:101BF0002066696E6973682120202D2D3E3E2025C8
:101C0000302E32660D0A00000D0A2D2D2D726561F1
:101C10006420436F6C6C65637453746172745469AF
:101C20006D65202D2D2D25642D2D2D2D0D0A0000E7
:101C3000526561642066726F6D20666C6173682006
:101C4000436F6E666967446174612E436F6C6C65A7
:101C50006374537461727454696D652066696E694A
:101C600073682120202D2D3E3E2025640D0A0000A2
:101C70000D0A2D2D2D7265616420436F6C6C6563B8
:101C8000744E756D202D2D2D25642D2D2D2D0D0AB5
:101C900000000000526561642066726F6D20666C02
:101CA00061736820436F6E666967446174612E4397
:101CB0006F6C6C6563744E756D2066696E697368D0
:101CC0002120202D2D3E3E2025640D0A000000001D
:101CD0000D0A2D2D2D726561642072657472792054
:101CE0006E756D626572202D2D2D25642D2D2D2D87
:101CF0000D0A0000526561642066726F6D20666C8B
:101D000061736820436F6E666967446174612E5227
:101D1000657472794E756D2066696E6973682120ED
:101D2000202D2D3E3E2025640D0A00000D0A2D2D8C
:101D30002D72656164206869676820616C61726DED
:101D4000206C6576656C202D2D2D25662D2D2D2D75
:101D50000D0A0000000049400000484221B102681D
:101D600042F00102026004E002684FF6FE731A407E
:101D70000260704701684FF6FE7211400160002159
:101D8000016041608160C1604B49884208D14A4985
:101D90000839496841F00F01474A083A51608AE022
:101DA00045491431884208D143490839496841F00E
:101DB000F001414A083A51607DE03F4928318842AC
:101DC00008D13D490839496841F470613A4A083AF6
:101DD000516070E038493C31884208D136490839B1
:101DE000496841F47041344A083A516063E032492D
:101DF0005031884208D130490839496841F470218E
:101E00002D4A083A516056E02B496431884208D186
:101E100029490839496841F47001274A083A516054
:101E200049E025497831884208D123490839496871
:101E300041F07061204A083A51603CE01F498842F5
:101E400006D1011F096841F00F01021F116032E045
:101E50001A491431884208D11849091F096841F00C
:101E6000F001164A121F116025E0144928318842FA
:101E700008D11249091F096841F470610F4A121F05
:101E8000116018E00D493C31884208D10B49091F07
:101E9000096841F47041094A121F11600BE00749BB
:101EA0005031884207D10549091F096841F4702162
:101EB000024A121F116070470800024008040240E5
:101EC00010B50022026847F6F0739A430C6A8B68DB
:101ED00023430C6923434C6923438C692343CC6916
:101EE00023434C6A23438C6A23431A430260CB6822
:101EF00043600B6883604B68C36010BD2DE9F041FF
:101F00000024002505260A2757484268016857A083
:101F100006F064FA4FF47A715F48FEF73EF95248D2
:101F200080685149086008460468B4F5FA7F07DB09
:101F30005AA006F053FA00204B498860BDE8F081B2
:101F40006048005D78B90BE0781EC7B2B4F5F97F40
:101F500001DC641C00E000245A48005D00B101E08F
:101F6000002FF1D100BF5748005D002876D035E042
:101F700005E0B4F5F97F01DC641C00E00024514861
:101F8000005D0028F5D124B940F2F31036494860CD
:101F900002E0601E344948600CE0701EC6B2B4F521
:101FA000F97F01DC641C00E000244648005D08B1B4
:101FB000052601E0002EF0D100BF7EB92A48406816
:101FC000A0F58071F33903D100202749886004E02F
:101FD00025484068401C2449886003E03948005D7A
:101FE0000028C5D100BF204840681F4909688842C1
:101FF0000EDD1D480468002505E03248005D2649D5
:102000004855641C6D1C18484068A042F5DA1EE073
:102010001548406814490968884218DA124804686B
:10202000002505E02748005D1B494855641C6D1CD0
:10203000B4F5FA7FF6DB002405E02248005D16497E
:102040004855641C6D1C08484068A042F5DA2946D2
:102050001DA006F0C3F9284670E7FFE720A006F0B0
:10206000BDF900206AE70000F80700200D0A444D82
:10207000415F55415254335F5265636576446174E4
:1020800061476574207374617274212125642D2D5C
:102090002D25640D0A000000040800200D0A437578
:1020A0007272656E7420446174612053746172743D
:1020B000204E756D626572204572726F722121200B
:1020C0000D0A0000040600200D0A55736172743376
:1020D000205265636576204F4B4B3A25640D0A000C
:1020E0000D0A466972737420566F69640D0A000008
:1020F0002DE9F04704460F46904600250026A946E4
:102100001E480078012835D1FFF7F8FE0546002D5E
:1021100025DD29461AA006F061F91E491EA006F029
:102120005DF900BF05E01B48815D1FA006F056F970
:10213000761CAE42F7DB012C03D100F077FE81461E
:1021400010E0022C03D100F0DDFE81460AE0032CF2
:1021500008D14146384600F08DFD814602E013A0CB
:1021600006F03CF94FF4FA711348FEF716F8002018
:10217000024908704846BDE8F0870000360000209C
:102180000D0A446174614C656E6774683A25640D8C
:102190000A000000040800200D0A55617274333AE9
:1021A00025730D0A00000000257820000D0A4E6FEF
:1021B00020646174610D0A00040600207120014949
:1021C000087070478D00002008B50121112001F032
:1021D00009FE8020ADF8000004208DF80300694658
:1021E000014800F0A5FB08BD0010014008B5012121
:1021F000112001F0F7FD8020ADF8000010208DF8CF
:10220000030003208DF802006946024800F090FBAD
:1022100008BD0000001001402DE9F84F0027B84626
:10222000B946002400250026A24645480078B8B9E2
:102230000120444B002201460090104600F0FEF8B9
:1022400040480078712805DD71203E4908703EA0A5
:1022500006F0C4F83B48017840A006F0BFF80AE059
:102260000120384B002201460090104600F052F940
:1022700000203349087007F0D7F887B207F08EF8CE
:102280001FFA80F807F020F81FFA80F9C8F30E054E
:10229000294636A006F0A2F82A48057807F056F835
:1022A00084B2214639A006F099F88CB94FF47A70BF
:1022B00008F068F83D4800F0BDF92248007838B1D0
:1022C00020480078401E1F49087007F03FF884B28C
:1022D0004FF47A7094FBF0F01A49097800EB010B87
:1022E0005846FEF7CEF9824631495046FDF7CBFFFE
:1022F00030490090FDF7FDFF8346FEF7EEF9C6B2C8
:1023000039462DA006F06AF8494633A006F066F873
:10231000214639A006F062F831463FA006F05EF88B
:1023200008480078854207D00120064B002201466C
:102330000090104600F0EEF83046BDE8F88F00003F
:102340002F0000208D0000200A0D205265674220DA
:10235000204552524F5221210D0A00000A0D2052F1
:102360006567423A2564200D0A0000000A0D20B579
:10237000E7B3D8B5E7C1F763757272656E743A2535
:102380006420286D41290D0A000000000A0D20423A
:10239000415454204361706163697479206C6566AF
:1023A000743A2564206D41680D0A000040420F0018
:1023B0000000C8420000E4420A0D20B5E7B3D8B5DA
:1023C000E7D1B9766F6C746167653A256420286D32
:1023D00056290D0A000000000A0D20B5E7C1BFC054
:1023E000DBBCC6616363756D756C6174653A2564A9
:1023F000206D41680D0A00000A0D20CAA3D3E0BE7B
:10240000F8B6D4B5E7C1BF524141433A2564206DC7
:1024100041680D0A000000000A0D20CAA3D3E0CFD6
:10242000E0B6D4B5E7C1BF46554C4C5F73746174D8
:1024300075733A256425250D0A0000002DE9F04743
:1024400005460E4617461C46DDF820803A463146C2
:102450002846FEF7EBFC814601F0DEFF02F070F843
:10246000104908604FF4487000F0E4F802F088F872
:102470000D4908600B480268084601680BA005F08A
:10248000ADFF094800681749884207D116A005F03A
:10249000A5FF42464946204601F002FF02F006F938
:1024A000BDE8F08784000020880000200D0A204647
:1024B0006C617368494420697320307825782C203A
:1024C000204D616E75666163747572657220446536
:1024D0007669636520494420697320307825780D3A
:1024E0000A0000001840EF000D0A53504920466CC6
:1024F0006173682057323551313238425620697342
:1025000020726561647920746F2072656164210DA9
:102510000A0000002DE9F04705460E4617461C4606
:10252000DDF820803A4631462846FEF77FFC81469A
:1025300001F072FF02F004F8134908604FF448708C
:1025400000F078F802F01CF8104908600E480268A4
:10255000084601680EA005F041FF0C4800681A49C2
:1025600088420DD119A005F039FF484602F032F833
:1025700042464946204601F0BDFEC82000F05AF808
:1025800002F094F8BDE8F087840000208800002065
:102590000D0A20466C6173684944206973203078C5
:1025A00025782C20204D616E7566616374757265A7
:1025B0007220446576696365204944206973203040
:1025C0007825780D0A0000001840EF000D0A5350DE
:1025D0004920466C61736820573235513132384298
:1025E0005620697320726561647920746F20777258
:1025F000697465210D0A000010B502A005F0EEFE19
:1026000010BD00000D0A5761726E6E696E67212160
:10261000204465627567204D6F6E69746F72206526
:102620007863657074696F6E204F6363757265645B
:102630000D0A000001B50C49009808604FF0E02039
:10264000006940F001004FF0E021086100BF06483A
:1026500000680028FBD14FF0E020006920F0010065
:102660004FF0E021086108BD480000202DE9F04F3F
:1026700085B005460E4600200490814603900290E6
:102680000A2E03DD3D4805F0A9FE74E0032E04DAAE
:102690003A48443005F0A2FE6DE028680490D5F871
:1026A0000090002411E055F824100498FEF7B8F8C3
:1026B00002D255F82400049055F824104846FEF73D
:1026C000B9F801D255F82490641CB442EBDB4846BB
:1026D000FEF74FF8074688460498FEF74AF8824608
:1026E00052460B4626A0CDE9007805F077FE494614
:1026F0000498FDF7C2FD8246FEF73BF8074600222C
:10270000294BFEF75DF815D2012406E055F8241098
:102710000398FDF760FD0390641C701EA042F5DC79
:10272000B01EFDF7AEFF074639460398FDF7E1FD01
:10273000029013E0002406E055F824100398FDF7FA
:102740004AFD0390641CB442F6DB3046FDF799FF66
:10275000074639460398FDF7CCFD02900298FEF734
:1027600008F807463A460B4610A005F037FE0298D7
:1027700005B0BDE8F08F00BFFAE70000A8A500088B
:102780000D0A20544845204D4158206973202530BA
:102790002E32662C20546865204D494E20697320E6
:1027A00025302E3266000000000020400D0A5448FB
:1027B00045206176657267652069732025302E3269
:1027C000660D0A002DE9F04306460F463546BC4625
:1027D000002100248846002A01DB002B02DA0020B9
:1027E000BDE8F0839A4201DA0020F9E79A4212D15B
:1027F00012B90BB90020F3E7002108E0685C1CF86F
:102800000190484501D00020EAE7481C01B29142FE
:10281000F4DB2846E4E70BB90020E1E7D01A401CBE
:102820000FFA80F8002113E0002408E00819285C62
:102830001CF80490484500D003E0601C04B29C42A0
:10284000F4DB00BF9C4201D16818C9E7481C01B203
:102850004145E9DB0020C3E72DE9F84F8246894670
:10286000D046CB46002600250024002700200090FB
:102870005046FDF7A9FC06B24846FDF7A5FC05B297
:10288000AE4202DA0020BDE8F88FAE4213D116B98D
:102890000DB90020F7E7002409E018F804001BF840
:1028A0000410884201D00020EDE7601C04B2B4425D
:1028B000F3DB4046E7E70DB90020E4E7701B401C5E
:1028C00000B20090002415E0002709E0E01918F894
:1028D00000001BF80710884200D003E0781C07B204
:1028E000AF42F3DB00BFAF4202D108EB0400CAE7FE
:1028F000601C04B200988442E6DB0020C3E70000BD
:1029000008B50121084601F03DFA01214FF401709C
:1029100001F068FA0220ADF8000000208DF80300F5
:102920006946024800F004F808BD000000080140B4
:102930002DE9F04102460025002600200023002456
:10294000002791F803C00CF00F0591F803C01CF0AC
:10295000100F03D091F802C04CEA050591F800C0B1
:10296000BCF1000F31D0146800202BE04FF0010CB7
:102970000CFA00F3B1F800C00CEA03069E4220D125
:1029800083004FF00F0C0CFA03F7BC4305FA03FC6D
:102990004CEA040491F803C0BCF1280F06D14FF0B3
:1029A000010C0CFA00FCC2F814C00AE091F803C054
:1029B000BCF1480F05D14FF0010C0CFA00FCC2F835
:1029C00010C0401C0828D1D31460B1F800C0BCF17D
:1029D000FF0F34DD546800202EE000F1080C4FF0AA
:1029E000010808FA0CF3B1F800C00CEA03069E4295
:1029F00021D183004FF00F0C0CFA03F7BC4305FA0A
:102A000003FC4CEA040491F803C0BCF1280F05D183
:102A100000F1080C08FA0CF8C2F8148091F803C011
:102A2000BCF1480F07D100F1080C4FF0010808FA7B
:102A30000CF8C2F81080401C0828CED35460BDE8C2
:102A4000F0810246002093680B4201D0012000E093
:102A500000207047416170470161704710B514A0B4
:102A600005F0BCFC4FF4FA711A48FDF796FB012201
:102A70004021194805F064F918A006F0D9FE1B485A
:102A8000FFF7D8FD1AA006F0D3FE1C48FFF7D2FDD1
:102A90001BA006F0CDFE1948FFF7CCFD1EA006F0E6
:102AA000C7FE1248FFF7C6FD1EA005F097FC10BD3B
:102AB0000D0A46554E4354494F4E203A4750525303
:102AC0005F436F6E666967202073746172742120A2
:102AD0000D0A0000040600200048004041545E55E5
:102AE0004152545250543D3100000000400D03004B
:102AF00041542B434D47463D31000000E093040014
:102B000041542B43504D533D224D45222C224D45DF
:102B1000222C224D4522000041542B434E4D493D6D
:102B2000312C31000D0A46554E4354494F4E203A40
:102B3000475052535F436F6E6669672020656E642D
:102B400021200D0A0000000070B52824022520A0D5
:102B500005F044FC4FF4FA712648FDF71EFB0122F4
:102B60004021254805F0ECF82448FFF763FD24A038
:102B700006F05EFE20E0601EC4B226A005F02EFC2A
:102B80002BA006F055FE2D48FFF754FD2CA006F0B3
:102B90004FFE2A48FFF74EFD002211460120FFF7A5
:102BA000A7FA2A480078012806D100202749087092
:102BB000681EC5B205B901E0002CDCD100BF1CB90C
:102BC0002349088806F05CFC22A005F007FC70BDD4
:102BD0000D0A46554E4354494F4E203A47505253E2
:102BE0005F496E69742020737461727421200D0A2C
:102BF00000000000040600200048004040420F0092
:102C000041545E4D4F4445434F4E4649473D31394F
:102C1000000000000D0A47505253204E65742053A7
:102C20006561726368696E672E2E2E0D0A000000C2
:102C300041542B43475245473D31000000350C00BD
:102C400041542B43475245473F0000004E000020AF
:102C5000A80000200D0A46554E4354494F4E203AD5
:102C6000475052535F496E69742020656E6421207D
:102C70000D0A00002DE9FF4706460F46002003908D
:102C8000002439A103C9CDE9010139A000680090F1
:102C90000025A046A14637A005F0A0FB01A8FDF73E
:102CA00093FA0FFA80FA53464FF47A7201A9364824
:102CB000FFF788FD04469CB134A005F08FFB204649
:102CC00002F0F4F900243748FFF7B4FC36A006F010
:102CD000AFFD3848FFF7AEFC012004B0BDE8F08737
:102CE00002234FF47A7269462748FFF76BFD0446CA
:102CF000002C33D03048844230D230A005F06EFB37
:102D00002078A32824D16078202821D1E178A078E8
:102D100001EB0020001DC5B229462046FEF76CFBE2
:102D20001FFA80F8681C215C605D01EB00201FFA2F
:102D300080F9C14509D128A005F050FB3B46324639
:102D400003A9204604F006FA02E02AA005F046FB9B
:102D50001848FFF76FFC00240120BEE72DA005F006
:102D60003DFB0020B9E700002B434D474C3A0000E3
:102D7000A32000000D0ABDD3CAD5CAFDBEDDBDE249
:102D8000CEF621210D0A0000040800200D0ABDD353
:102D9000CAD5B6CCD0C5CAFDBEDDBDE2CEF6212176
:102DA0000D0A0000C0C62D0041542B434D47443D41
:102DB000312C330020A10700EB0B00200D0ABDD3FE
:102DC000CAD5C9CFCEBBBBFACAFDBEDDBDE2CEF6C9
:102DD00021210D0A000000000D0A52656365697625
:102DE0006520206461746120726967687421210D17
:102DF0000A0000000D0A526563656976652020644B
:102E0000617461206E6F7420636F727265637421E8
:102E1000210D0A000D0ABDD3CAD5CAFDBEDDBDE233
:102E2000CEF6CDEAB3C921210D0A000010B5002469
:102E300013A005F0D3FA0B234FF47A721AA11D48A0
:102E4000FFF7C0FC04463CB11BA005F0C7FA012007
:102E50001F490870002410BD0B234FF47A721DA186
:102E60001448FFF7AFFC04463CB11DA005F0B6FACC
:102E70000120174908700024EDE70020EBE700006F
:102E80000D0A47505253204E6574204C6F67696E8F
:102E9000205265636569766520416E616C7973695E
:102EA00073202E2E2E0D0A002B43475245473A2001
:102EB000312C3100040800200D0A4E657420526543
:102EC000676973746572204F4B21210D0A00000061
:102ED0004E0000202B43475245473A20312C350005
:102EE0000D0A4E6574205265676973746572204FD0
:102EF0004B2121526F616D696E67206F6E21210D2C
:102F00000A00000010B5002407A005F067FA0723A7
:102F10004FF47A720DA10F48FFF754FC04460CB130
:102F2000012010BD0020FCE70D0A54435020436FE0
:102F30006E6E65637420697320696E2070726F63B2
:102F40006573732E2E2E0D0A00000000434F4E4E67
:102F500045435400040800200FB42DE9F04F8DB014
:102F60002F9FF94805904FF0000BD946012004909F
:102F70004FF0000A0024002500264FF00008102022
:102F800003900C200290DDF8149040F20B3148467B
:102F9000FDF703F9A320EC4908702020487000BF1A
:102FA00006E03098015DE848001D0155601CC4B280
:102FB000062CF6DB0120E4498872319806F08FFC7C
:102FC000E149A1F80B004FF42170A1F80D00B1F810
:102FD0000D0006F084FCDC49A1F80D000120C87347
:102FE0000C2048800024002081F80A03F5E21AA88A
:102FF00050F82400D54A811A90427DD011DCD44A81
:10300000A0EB0201904278D006DCA0F180500A3893
:1030100010D0182872D15AE21E2970D02029F9D177
:103020009AE10D293DD01E296AD0C02969D0C12955
:10303000F0D1C0E0C649193904EB440000EB04129A
:10304000C148103000EB42000160012104EB440054
:1030500000EB0412BC48103000EB42008180BD48F8
:10306000C17904EB440000EB0412B748103000EBC8
:1030700042008171B44890F80A03401CB24981F8BB
:103080000A030846418804EB440000EB0412AE48F2
:10309000103000EB420080880844801DAA49488017
:1030A00098E200F0E5FF06A9019003F023FEA9498C
:1030B00006984872079888720898C8720998087329
:1030C0000A9848730B98A0F5FA6088739F490D31F0
:1030D00004EB440000EB04129B48103000EB42006C
:1030E0000160062104EB440000EB04129648103006
:1030F00000EB4200818005E06AE129E269E2A5E196
:10310000DFE09BE09348817B04EB440000EB04127A
:103110008D48103000EB420081718E48417B04EBFA
:10312000440000EB04128848103000EB4200C171EB
:103130008848017B04EB440000EB04128248103005
:1031400000EB420001728348C17A04EB440000EBBB
:1031500004127D48103000EB420041727D48817AB4
:1031600004EB440000EB04127748103000EB4200FF
:1031700081727848417A04EB440000EB04127248F3
:10318000103000EB4200C1726F4890F80A03401CF7
:103190006D4981F80A030846418804EB440000EBBE
:1031A00004126948103000EB420080880844801DFA
:1031B000654948800EE26549C13104EB440000EBEB
:1031C00004126148103000EB42000160022104EB60
:1031D000440000EB04125C48103000EB4200818098
:1031E0005C480088011204EB440000EB04125648CE
:1031F000103000EB420081715648017804EB440026
:1032000000EB04125048103000EB4200C1714E48F0
:1032100090F80A03401C4C4981F80A03084641888B
:1032200004EB440000EB04124748103000EB42006E
:1032300080880844801D44494880CBE14349C0311F
:1032400004EB440000EB04123F48103000EB420056
:103250000160022104EB440000EB04123A481030F4
:1032600000EB420081803B488088011204EB44005F
:1032700000EB04123448103000EB420081713548F5
:10328000017904EB440000EB04122F48103000EBEE
:103290004200C1712C4890F80A03401C2A4981F869
:1032A0000A030846418804EB440000EB0412264858
:1032B000103000EB420080880844801D224948807D
:1032C00088E122491E3104EB440000EB04121E4841
:1032D000103000EB42000160022104EB440000EBDF
:1032E00004121948103000EB4200818019484088D0
:1032F000011204EB440000EB04121348103000EB01
:10330000420081711348817804EB440000EB041201
:103310000D48103000EB4200C1710B4890F80A03D1
:10332000401C094981F80A030846418804EB44001F
:1033300000EB04120448103000EB4200808808447F
:10334000801D0149488045E14610002044000010DE
:1033500023000010A8000020F74904EB440000EB14
:103360000412F64800EB42000160042104EB440023
:1033700000EB0412F14800EB4200818000260CE0D3
:10338000EF48815D04EB440000EB0412EB4800EBD6
:103390004200801D8155701CC6B2042EF0DBE74848
:1033A000103890F80A03401CE449103981F80A03E8
:1033B0000846418804EB440000EB0412DF4800EBB0
:1033C000420080880844801DDC491039488001E1B2
:1033D000D949491C04EB440000EB0412D74800EB28
:1033E00042000160042104EB440000EB0412D348C6
:1033F00000EB4200818000260DE0D148001D815D78
:1034000004EB440000EB0412CC4800EB4200801DAA
:103410008155701CC6B2042EEFDBC848103890F8F6
:103420000A03401CC549103981F80A03084641883F
:1034300004EB440000EB0412C04800EB420080881B
:103440000844801DBD4910394880C3E0BA49891E2F
:1034500004EB440000EB0412B84800EB42000160AA
:10346000B848017804EB440000EB0412B34800EBC9
:103470004200818000250DE0B1482638415D04EB13
:10348000440000EB0412AD4800EB4200801D4155A2
:10349000681CC5B2AB4800788542EDDBA748103800
:1034A00090F80A03401CA549103981F80A03084620
:1034B000418804EB440000EB0412A04800EB4200FA
:1034C00080880844801D9D491039488082E09A49CF
:1034D000213904EB440000EB0412984800EB420051
:1034E00001609948017804EB440000EB0412934812
:1034F00000EB4200818000250DE091481638415DC7
:1035000004EB440000EB04128C4800EB4200801DE9
:103510004155681CC5B28C4800788542EDDB874870
:10352000103890F80A03401C8449103981F80A03C6
:103530000846418804EB440000EB04127F4800EB8E
:10354000420080880844801D7C491039488041E051
:103550007949203904EB440000EB0412774800EB72
:10356000420001607948017804EB440000EB04124A
:10357000724800EB4200818000250DE07048801FFA
:10358000415D04EB440000EB04126C4800EB420088
:10359000801D4155681CC5B26C4800788542EDDB42
:1035A0006648103890F80A03401C6449103981F8C5
:1035B0000A030846418804EB440000EB04125F480C
:1035C00000EB420080880844801D5C491039488027
:1035D00000E000BF00BF601CC4B29DF8BA00A0426A
:1035E0003FF705AD55491039488806F078F9534939
:1035F000103948804FF6FF70A1F8080310224946A1
:103600003846FCF7B1FD0024102545E004EB4401E9
:1036100001EB0412494901EB4201086806F052F936
:1036200004EB440101EB0412444901EB4201086040
:1036300004EB440000EB0411404800EB410904EBAB
:10364000440000EB04113D4800EB41000079801D6F
:1036500000F0FF0805EB0800B0F5F87F00DD21E081
:1036600004EB440101EB0412344901EB4201888868
:1036700006F035F904EB440101EB04122F4901EB8C
:1036800042018880781942464946FCF76DFD05EBFA
:103690000800C5B2601CC4B22848103890F80A036C
:1036A000A042B3DC00BF2548103890F80823284614
:1036B000691CCDB23A5421481038B0F80803021200
:1036C0002846691CCDB23A5429463846FDF794FE87
:1036D0001FFA80FA19481038A0F808A3A81E07F8A6
:1036E00000A04FEA2A21681E395415483638C0799F
:1036F000002804DD12483638C079049001E001202A
:10370000049000240EE02946384601F027F883464D
:1037100059460FA004F062FEBBF1010F00D104E096
:10372000601CC4B204988442EDDB00BF294612A09D
:1037300004F054FE002431E0430000105610002035
:10374000DE00002081000020820000208300002095
:103750000D0A526563656976652047657452657325
:10376000706F6E736520737563636573733A253488
:1037700078210D0A000000000D0A2D2D2D2D4C651D
:103780006E6774683A25642D2D2D2D0D0A000000FA
:10379000395D06A004F022FE601CC4B2AC42F7DB27
:1037A0000DB0BDE8F00F5DF814FB00002C3078255B
:1037B00078000000F0B58DB00446342221496846F7
:1037C000FCF7D2FC6069451E642195FBF1F12846A7
:1037D000EA1705EB9272C1EBA2014FF4C87295FB98
:1037E000F2F28F186069C11700EB91718910B0EB8C
:1037F000810112D16422616991FBF2F302FB131182
:1038000031B99200616991FBF2F302FB131121B906
:103810002169022901DD012600E0002640F26D1039
:1038200005FB00712069401E5DF820000844E16836
:1038300008440644072096FBF0F100FB1160A061EC
:103840000DB0F0BD78A8000810B503E003A004F0A7
:10385000C5FD00E0FAE700BF10BD00000D0A57618A
:10386000726E6E696E672121204861726420466124
:10387000756C74204F6363757265640D0A000000F7
:10388000AA2101701E21417003210171704710B5FA
:1038900004464FF484712046FCF77FFC10BD000005
:1038A000F0B593B0342106A8FCF777FC1CA004F017
:1038B00095FD2348007810B92248057801E020489A
:1038C0000578072004AB0022294600900120FEF76E
:1038D000B5FD002407E0A01C04A9095C0DF10A0055
:1038E0000155601CC4B2042CF5DBDDF80A00FCF7BE
:1038F00040FF15A2CDE90001322106A804F07EFDAB
:1039000006A91AA004F06AFD1E48FEF793FE06A859
:10391000FDF7F0FC1C48FEF78DFE13B0F0BD000073
:103920000D0A73656E736F72206461746120696E35
:1039300071756972696E672E2E2E0D0A00000000E7
:1039400040000020320000200D2043757272656E29
:10395000742073656E736F72206461746120697383
:103960003A2025302E326620210D00000D0A5365C5
:103970006E6420746F2050686F6E653A2025732046
:103980000D0A000080841E0040420F0010B503E0C5
:1039900003A004F023FD00E0FAE700BF10BD000023
:1039A0000D0A5761726E6E696E672121204D656D3B
:1039B0004D616E616765204F6363757265640D0AC2
:1039C0000000000010B502A004F008FD10BD0000CA
:1039D0000D0A5761726E6E696E672121204E4D4946
:1039E000204F6363757265640D0A000070B5002195
:1039F00000230F22C4780CB3164C246804F4E0644E
:103A0000C4F5E064210AC1F10403CA40447804FA11
:103A100003F184781440214309010F4C0678A15525
:103A2000047804F01F050124AC4005786D114FF0B7
:103A3000E02606EB8505C5F8004109E0047804F0AE
:103A40001F050124AC40054D0678761145F8264047
:103A500070BD00000CED00E000E400E080E100E05B
:103A600002490143024A1160704700000000FA0554
:103A70000CED00E0014908627047000000000E42B2
:103A80000A48006840F004000849086008460068D9
:103A900040F0020008600648006840F00400044955
:103AA000086000BF00BF30BF7047000000700040DA
:103AB00010ED00E010B502A004F090FC10BD000075
:103AC0000D0A5761726E6E696E6721212050656E16
:103AD0006453564320657863657074696F6E204F38
:103AE0006363757265640D0A0000000010B54FF441
:103AF000C0725F217F2004F019FC02F0A3FD03F0E7
:103B000079FF3248FEF796FD31A004F067FC38A03B
:103B100004F064FC04F02EF83FA004F05FFC03F016
:103B20001BFF48A004F05AFC04F076F84DA004F006
:103B300055FC02F0C5FE02F017FF0021022000F044
:103B400031F900F0BCFA534800F02CFAFDF7E0F828
:103B500051A004F043FC4FF480515848FEF77CFF1D
:103B600057A004F03BFC80215448FEF775FF5BA092
:103B700004F034FC4FF480715048FEF76DFF5EA0F6
:103B800004F02CFC6348FEF755FD00F071FA624921
:103B9000086062A004F022FC6948FDF785FD6948D1
:103BA000007801280AD168A004F018FCFEF706FB93
:103BB00001F0AEF94FF47A7006F0E4FBFEF7C4FFB3
:103BC000FEF74CFF6848FEF735FD10BD400D0300C1
:103BD0000D0A54686520446576696365204265670F
:103BE000696E20746F20436F6E666967210D0A004D
:103BF0000D0A55534152543120696E6974696F6ED4
:103C00002066696E69736865643A393630302D38DC
:103C10002D4E2D31200D0A000D0A555341525433BB
:103C200020696E6974696F6E2066696E6973686574
:103C3000643A3131353230302D382D4E2D31200D52
:103C40000A0000000D0A554152545F4E5649432068
:103C5000696E6974696F6E2066696E697368656400
:103C6000200D0A000D0A5553415254335F444D4113
:103C700020696E6974696F6E2066696E6973683A4F
:103C8000444D41315F4368616E6E656C33200D0AAF
:103C900000000000880300200D0A41444320696EA3
:103CA0006974696F6E2066696E69736865643A410C
:103CB0004443312D3E5042310D0A000000080140BE
:103CC0000D0A506F7765724F4E5F466C61736820C6
:103CD00066696E69736865640D0A00000D0A506FAD
:103CE0007765724F4E5F475052532066696E697315
:103CF0006865640D0A0000000D0A506F7765724F09
:103D00004E5F53656E736F722066696E6973686586
:103D1000640D0A0020A10700380000200D0A456E3E
:103D200074657220436F6E666967446174615F49B0
:103D30006E69742066756E6374696F6E3B0D0A0060
:103D4000A80000202F0000200D0AB5F4B5E7D6D852
:103D5000C6F4A3ACD6D8D0C2B3F5CABCBBAFBFE2E1
:103D6000C2D8BCC60D0A0000404B4C0001460020E2
:103D7000034A506820F440400843506070470000F8
:103D80000010024029B1064A52690243044B5A61AD
:103D900004E0034A52698243014B5A6170470000B4
:103DA0000010024029B1064AD2690243044BDA618D
:103DB00004E0034AD2698243014BDA617047000094
:103DC0000010024029B1064A12690243044B1A61ED
:103DD00004E0034A12698243014B1A6170470000F4
:103DE0000010024029B1064A92690243044B9A61CD
:103DF00004E0034A92698243014B9A6170470000D4
:103E00000010024029B1064AD2680243044BDA602E
:103E100004E0034AD2688243014BDA607047000035
:103E2000001002400149086070470000400442420F
:103E30000348406A40F080700149486270470000C2
:103E40000010024030B500210022002400232D4D37
:103E50006D6805F00C0121B1042905D0082923D192
:103E600005E0294D056022E0274D05601FE0254D46
:103E70006D6805F47012234D6D6805F480340225D9
:103E800005EB92421CB9214D554305600BE01D4DD9
:103E90006D6815F4003F03D01C4D5543056002E0EA
:103EA000194D5543056002E0174D056000BF00BF86
:103EB000144D6D6805F0F0010909154D6B5C05683E
:103EC000DD4045600F4D6D6805F4E061090A104D55
:103ED0006B5C4568DD4085600A4D6D6805F4605196
:103EE000C90A0B4D6B5C4568DD40C560054D6D68CA
:103EF00005F44041890B074D6B5CC568B5FBF3F5D4
:103F0000056130BD0010024000127A0000093D003A
:103F1000140000202400002010B5014600220023D8
:103F200000204A11012A02D1094C236806E0022A26
:103F300002D1074C236A01E0054C636A01F01F02BD
:103F4000012494401C4201D0012000E0002010BD5B
:103F50000010024000210A4A11700A4A82F820101B
:103F6000012802D0042808D103E00121044A11707D
:103F700004E00521024A117000E000BF00BF704755
:103F80002010024000100240014908607047000004
:103F90003C0442420249096A0143014A11627047E6
:103FA0000010024010B504460420FDF7E9F9A0F521
:103FB0002541A53907D000F021F84AF2A551042087
:103FC000FDF7F2F90CE07B20FFF7A6FF18B1012006
:103FD0000549087002E07A20FFF79EFF00F0BAF86A
:103FE000FFF726FF10BD00002F00002002490988BE
:103FF0008143014A118070470428004010B5012117
:104000004FF0C050FFF7CEFE0120FFF733FDFDF764
:10401000AFF90120FFF79EFF00BF4120FFF77CFFB3
:104020000028FAD04FF48070FFF7B4FF0120FFF7AB
:10403000ABFF00F08FF800F083F847F6FF7000F058
:104040006FF800F07DF810BD0348008840F01000C4
:104050000149088070470000042800400348008898
:104060004FF6EF710840014908807047042800406E
:10407000002103480188001F008841EA0040704782
:104080001C28004001460020064A12880A40D0B28F
:10409000044A121F12880A4202D008B1012000E02F
:1040A000002070470428004010B50120FFF7EAFF08
:1040B00020B10120FFF79AFF00F042F810BD08B5CB
:1040C0004FF4A060FFF7CCFC03208DF80000022025
:1040D0008DF801008DF8020001208DF8030068467C
:1040E000FFF784FC08BD000000B50246FFF7ACFFF7
:1040F000100C03490880091D0A80FFF7AFFF00BDBF
:104100002028004000B50246FFF79EFF100C03492F
:104110000880091D0A80FFF7A1FF00BD1828004094
:1041200000B50246FFF790FFC2F303400349088041
:10413000091D0A80FFF792FF00BD0000082800401B
:1041400000BF0348008810F0200FFAD0704700002D
:1041500004280040064800884FF6F77108400449DB
:10416000088000BF0248008810F0080FFAD070479E
:10417000042800402DE9F84F044621461DA004F014
:104180002DF92046FCF786FA4FF08B410090FCF7A2
:10419000B0F88346FCF7EDFA07464FF066321E4B47
:1041A000FCF78EF90546FCF71FFB81461B49484684
:1041B000FCF769F8824600215046FCF731FB02D239
:1041C0004FF0000A0AE05046FCF7D3FA05460022F9
:1041D000134BFCF7F5FA01D2DFF848A05046FCF784
:1041E000C8FA05462A460B460FA004F0F7F85046D9
:1041F000BDE8F88F0D0A546865204F726967696ED3
:10420000616C2041444320646174612069732025FE
:1042100064200D0A0000000066660A40000020428B
:10422000000059400000C8420D5468652053656E77
:10423000736F7220446174612069732025302E32BF
:10424000660D0A00014601F00100002207E0430666
:10425000180E491001F001031843531CDAB2072A63
:10426000F5DB7047014601F00100002209E04FF63E
:10427000FF7303EA4000491001F001031843531C87
:10428000DAB20F2AF3DB704721B1028842F0400214
:10429000028004E002884FF6BF731A400280704724
:1042A00070B505460C4616464FF480511048FEF78F
:1042B000D1FB032000F0B2F9C4F3074000F0AEF9DF
:1042C000C4F3072000F0AAF9E0B200F0A7F904E077
:1042D000FF2000F0A3F928706D1C3000A6F1010149
:1042E0008EB2F5D14FF480510148FEF7B5FB70BD99
:1042F000000C01402DE9F05F07460E4614464FF0D2
:104300000008C146C2460025AB4606F0FF0ACAF1C6
:104310000000C5B22046E11704EB1161C1F3072884
:10432000E11704EB11610912A4EB012101F0FF096F
:10433000BAF1000F20D1B8F1000F05D12246314665
:10434000384600F0CBF864E009E04FF48072314663
:10435000384600F0C3F806F5807607F580775FEA07
:104360000800A8F1010101F0FF08EED14A463146EC
:10437000384600F0B3F84CE0B8F1000F18D1A94569
:1043800010DDA9EB050000F0FF0B2A463146384648
:1043900000F0A4F82E442F445A463146384600F027
:1043A0009DF836E022463146384600F097F830E076
:1043B000601B84B22046E11704EB1161C1F30728AA
:1043C000E11704EB11610912A4EB012101F0FF09CF
:1043D0002A463146384600F081F82E442F4409E041
:1043E0004FF480723146384600F078F806F5807652
:1043F00007F580775FEA0800A8F1010101F0FF08E6
:10440000EED1B9F1000F04D04A463146384600F0EB
:1044100065F8BDE8F09F000000B587B001210820D5
:10442000FFF7E0FC01218803FFF7BCFC4FF40050CC
:10443000ADF8040003208DF8060018208DF8070061
:1044400001A92448FEF774FA4FF48040ADF8040047
:1044500001A92048FEF76CFA4FF40040ADF80400C3
:1044600001A91C48FEF764FA4FF48050ADF804002F
:1044700010208DF8070001A91648FEF759FA4FF4ED
:1044800080511448FEF7E8FA0020ADF808004FF418
:104490008270ADF80A000020ADF80C000220ADF8E3
:1044A0000E000120ADF810004002ADF81200082007
:1044B000ADF814000020ADF816000720ADF8180084
:1044C00002A9054800F012F901210348FFF7DCFEBC
:1044D00007B000BD000C01400038004070B5054633
:1044E0000C46164600F0D0F84FF480511348FEF702
:1044F000B1FA022000F092F8C4F3074000F08EF801
:10450000C4F3072000F08AF8E0B200F087F8B6F5AF
:10451000807F01DD4FF4807603E0287800F07EF89C
:104520006D1C3000A6F101018EB2F6D14FF480511E
:104530000248FEF791FA00F08DF870BD000C0140C2
:1045400010B500244FF480510C48FEF783FAAB20DD
:1045500000F064F8FF2000F061F8FF2000F05EF842
:10456000FF2000F05BF8FF2000F058F804464FF4FD
:1045700080510248FEF770FA204610BD000C014041
:104580002DE9F04100240025002600274FF480513A
:104590000F48FEF75FFA9F2000F040F8FF2000F080
:1045A0003DF80546FF2000F039F80646FF2000F0F0
:1045B00035F807464FF480510548FEF74DFA2804B8
:1045C00040EA062040EA07042046BDE8F0810000EA
:1045D000000C014010B5044600F056F800F03AF81F
:1045E0004FF480510C48FEF735FA202000F016F801
:1045F000C4F3074000F012F8C4F3072000F00EF8EF
:10460000E0B200F00BF84FF480510348FEF724FAB3
:1046100000F020F810BD0000000C014010B5044669
:1046200000BF02210A4800F053F80028F9D02146C3
:10463000074800F059F800BF0121054800F048F88C
:104640000028F9D0024800F04CF8C0B210BD0000BC
:104650000038004010B500244FF480510948FEF79F
:10466000F9F90520FFF7DAFF00BFFF20FFF7D6FFBB
:10467000044614F0010FF8D14FF480510148FEF7C1
:10468000EBF910BD000C014010B54FF48051064805
:10469000FEF7E0F90620FFF7C1FF4FF48051024812
:1046A000FEF7DAF910BD0000000C014010B54FF420
:1046B00080510648FEF7CEF9B920FFF7AFFF4FF45F
:1046C00080510248FEF7C8F910BD0000000C0140FF
:1046D0000246002013890B4201D0012000E0002097
:1046E00070470146888970478181704710B5002264
:1046F000028802F441520B884C8823438C88234360
:10470000CC8823430C8923434C8923438C8923433E
:10471000CC8923431A430280838B4FF2FF742340DA
:1047200083830B8A038210BD10B502A003F056FEEE
:1047300010BD00000D0A5761726E6E696E6721210F
:1047400020535643616C6C20657863657074696FA3
:104750006E204F6363757265640D0A002DE9F041A8
:10476000C2B006460C466D4641F211180027284695
:10477000FFF78DF82846FFF783F885F803804FEAA6
:104780002820A870FF2C00DDFF242246314605F1C9
:104790000900FBF7E9FCAC71284603F0C4FB0027D5
:1047A00004E0F15D09A003F019FE7F1CA742F8DBCD
:1047B0002146304605F062F80648FDF73BFF06A0AB
:1047C00003F00CFE012042B0BDE8F0812D2D2578CC
:1047D0002D2D0000C0C62D000D0A53656E64204FBC
:1047E00076657221210D0A0070B504460025002669
:1047F0002046FBF7E9FCC5B266191A20307070BD7F
:104800002DE9F04F91B00446894692464FF0000BD7
:10481000002010900E900F9000259BA003F0DEFD6D
:10482000FFF726FC8346A148C0F800B0A0495846CF
:1048300002F060FA9E4800789E4948729C480079D0
:1048400088729B48007AC8729948007B0873984820
:10485000007C48739648007DA0F5FA608873944800
:10486000006893494968924A9268CDE90021029014
:104870008F48C368026941698FA003F0AFFD8B4880
:10488000006898490968461A314697A003F0A6FDCA
:10489000B42E0BD29DA003F0A1FDC6F1B4014FF4DC
:1048A0007A72514301FB02F0FDF7C4FE002516E0C9
:1048B000A4480088FFF75EFC04A941F8250051F8E0
:1048C0002500FBF756FF07463A460B4629469EA0B1
:1048D00003F084FDA448FDF7ADFE681CC5B20A2DA7
:1048E000E6DB4FF48071A148FEF7B4F80A2104A872
:1048F000FDF7BCFEC4F802006E48807A6D49C97AA3
:10490000C1EB011100EB81002080218898A003F009
:1049100065FD9F480078401CA0719E48FDF78AFE07
:10492000A0799B490870084600789B4981F84400AB
:10493000012001F144030022092100901046FDF7F7
:10494000E9FD208800128DF8380020788DF83900B4
:10495000002506E0A01C415DA81C0EAA1154681C8D
:10496000C5B2042DF6DBA0798DF83E00072000903B
:10497000A1790EAB00220120FDF7CCFD0120874973
:104980000870A17986A003F029FD4A4AD2F83A10AE
:10499000D4F80200FBF74EFF07D9464AD2F836108A
:1049A000D4F80200FBF746FF1DD80120109001F05B
:1049B000B7FE00250FE0874B524649468648FCF774
:1049C00071FA86480078012800D106E08448FDF796
:1049D00031FE681CC5B2022DEDDB00BF01F052FFB5
:1049E0000120804908706A4800787F490978884228
:1049F0000DDA5146484601F097FD109810B9012094
:104A0000764908702B49088804F03AFD39E060487F
:104A1000007875490978884233D15146484601F0FB
:104A200083FD7248FDF706FEFDF7F6FB214908728B
:104A3000594890F84600012803D10020564981F8D2
:104A4000460001F06DFE00250FE0694B52464946D5
:104A5000614802F065F961480078012800D106E05C
:104A60006448FDF7E7FD681CC5B2022DEDDB00BF11
:104A700001F008FF01205B4908700E49088804F026
:104A8000FFFC11B0BDE8F08F0D0A746865207365F6
:104A90006E736F7220737461727420636F6C6C65D7
:104AA00063742064617461210D0A00003C000020E1
:104AB00088030020A800002054696D653A20253045
:104AC0002E34642D25302E32642D25302E32642074
:104AD00025302E32643A25302E32643A25302E327B
:104AE000640D0A00380000200D0A54484520534543
:104AF0004E534F522048415320574F524B494E4737
:104B00002025642053210D0A000000000D0A54489E
:104B1000452053454E534F52204E45454420574162
:104B2000495420203138302053204245464F5245C9
:104B300020434F4C4C4543542044415441210D0ADD
:104B4000000000009E0000200D0A4E4F3A25642010
:104B50002073656E736F725F636F6C6C6563743A1C
:104B60002025302E3266000040420F000008014030
:104B70000D0A70476574446174612D3E436F6C6C1F
:104B800065637454696D653A25640D0A0000000080
:104B90004000002020A10700E60000202D0000209A
:104BA0000D0A7468652073656E736F72206461749A
:104BB0006120616C72656164792073656E64204E5A
:104BC0004F2E256420746F20666C617368210D0A76
:104BD00000000000410000205A0200202C000020AC
:104BE000C0C62D003100002032000020A086010048
:104BF000A4030020404B4C0030B5B9B0C82107A831
:104C0000FBF7CBFA142102A8FBF7C7FA5AA107A8B1
:104C1000FBF7CEFA5B4B5CA2142102A803F0EEFB7B
:104C200002A907A8FBF7C4FA58A107A8FBF7C0FA26
:104C3000544B103354A2142102A803F0DFFB02A945
:104C400007A8FBF7B5FA52A107A8FBF7B1FA4D4B3D
:104C500020334DA2142102A803F0D0FB02A907A81B
:104C6000FBF7A6FA4CA107A8FBF7A2FA45491039B1
:104C7000D1F83600FBF77DFD4AA2CDE900011421F1
:104C800002A803F0BBFB02A907A8FBF791FA47A112
:104C900007A8FBF78DFA3B491039D1F83A00FBF72A
:104CA00068FD40A2CDE90001142102A803F0A6FB93
:104CB00002A907A8FBF77CFA3FA107A8FBF778FA3F
:104CC0003048103883883FA2142102A803F096FBD5
:104CD00002A907A8FBF76CFA3BA107A8FBF768FA43
:104CE00028481038038837A2142102A803F086FB55
:104CF00002A907A8FBF75CFA37A107A8FBF758FA47
:104D00002048103843882FA2142102A803F076FB14
:104D100002A907A8FBF74CFA32A107A8FBF748FA4B
:104D200018481038C37927A2142102A803F066FBA3
:104D300002A907A8FBF73CFA2DA107A8FBF738FA50
:104D400010481038037A2CA2142102A803F056FB55
:104D500002A907A8FBF72CFA2948FDF76BFC07A965
:104D600028A003F03BFB2648FDF764FC07A8FCF7EE
:104D7000C1FA39B030BD00000D50686F6E65204E2D
:104D8000756D3A00B800002025732C0049503A0098
:104D9000504F52543A0000004C4F574C4556454C2A
:104DA0003A00000025302E32662C00004849474862
:104DB0004C4556454C3A0000537461727454696D09
:104DC000653A000025642C00436F6C6C6563745079
:104DD0006572696F643A000053656E64436F756E67
:104DE000743A00005245545259204E554D3A000035
:104DF0004241545445523A0025642C0D00000000F5
:104E000080841E000D0A20746865206465766963DD
:104E1000652073657420706172616D65746F7220B6
:104E200069732025732C0D0A0000000010B500F0F6
:104E300001F810BD0CB500200190009032480068C8
:104E400040F480303049086000BF2F48006800F40B
:104E5000003000900198401C0190009818B901980A
:104E6000B0F5A06FF1D12848006810F4003F02D0DF
:104E70000120009001E0002000900098012842D11C
:104E80002248006840F01000204908600846006889
:104E900020F0030008600846006840F00200086047
:104EA0001948406818494860084640684860084604
:104EB000406840F4806048600846406820F47C10F8
:104EC00048600846406840F4E810486008460068BA
:104ED00040F08070086000BF0B48006810F0007F51
:104EE000FAD00948406820F00300074948600846A6
:104EF000406840F00200486000BF0348406800F08E
:104F00000C000828F9D10CBD00100240002002401E
:104F100010B50021602005F021FB602004F0BEF8F0
:104F20000221612005F01AFB612004F0B7F832215C
:104F30000F2005F013FB0F2004F0B0F81C21142003
:104F400005F00CFB142004F0A9F8ED21622005F017
:104F500005FB622004F0A2F88021632005F0FEFA30
:104F6000632004F09BF8B821642005F0F7FA642070
:104F700004F094F81421652005F0F0FA652004F09F
:104F80008DF88F21662005F0E9FA662004F086F896
:104F90000821672005F0E2FA672004F07FF832214B
:104FA000692005F0DBFA692004F078F81F216A20F7
:104FB00005F0D4FA6A2004F071F840216B2005F066
:104FC000CDFA6B2004F06AF80621682005F0C6FAD5
:104FD000682004F063F80F216C2005F0BFFA6C2004
:104FE00004F05CF81C216D2005F0B8FA6D2004F087
:104FF00055F826216E2005F0B1FA6E2004F04EF827
:1050000027216F2005F0AAFA6F2004F047F8072146
:10501000702005F0A3FA702004F040F810217120F0
:1050200005F09CFA712004F039F81E21722005F079
:1050300095FA722004F032F81221732005F08EFAEE
:10504000732004F02BF80221742005F087FA7420F5
:1050500004F024F80521752005F080FA752004F08D
:105060001DF80521762005F079FA762004F016F86F
:105070000A21772005F072FA772004F00FF8042156
:10508000782005F06BFA782004F008F808217920E0
:1050900005F064FA792004F001F800217A2005F087
:1050A0005DFA7A2003F0FAFF10BD00002DE9F04F01
:1050B000ADF5137D8346FEA103C9929191901C2208
:1050C000FD498AA8FBF750F81C22FB491C3183A834
:1050D000FBF74AF81C22F84938317CA8FBF744F862
:1050E0002022F549543174A8FBF73EF82022F249FA
:1050F00074316CA8FBF738F82022EF49943164A88A
:10510000FBF732F82022EC49B4315CA8FBF72CF80D
:105110002422E949D43153A8FBF726F82422E64992
:10512000F8314AA8FBF720F81422E44945A8FBF718
:105130001BF81422E2A140A8FBF716F800203C90CF
:105140003D903E903F90389039903A903B90C821E6
:1051500006A8FBF722F800250026A9460024002017
:105160000590049003908246DAA15846FDF774FB3F
:105170000546002D01F0D381DA4885420FD20F3564
:1051800000BF09E02878222800D107E028783CA950
:1051900008556D1C601CC4B2102CF3DB00BF0D2C35
:1051A00008DB22463CA9D048FAF7DEFF3CA9CFA095
:1051B00003F014F90025BEA15846FDF74DFB054646
:1051C000002DD7D091A8FAF7FFFF40F2E731081A77
:1051D000CC490844A84241F2A28191A8FAF7F4FF11
:1051E000461900253146C8A003F0F8F86CA8FAF774
:1051F000EBFF07B25846FAF7E7FF0FFA80F83B4695
:1052000042466CA95846FDF7DDFA0546002D7DD0D3
:105210006CA8FAF7D9FF40F2E731081A401EB949E5
:105220000844A84272D96CA8FAF7CEFF46190024A8
:1052300008E0305D302802DB305D392800DD03E016
:10524000601CC4B2042CF4DB00BF1CB9B7A003F08F
:10525000C5F83CE0042C00DD04240020389039908F
:105260003A903B902246314638A8FAF77DFF38A89D
:1052700003F098FEB54908800846008800129A4954
:1052800081F83E00B1480178974880F83F1038A96E
:10529000AFA003F0A3F8AD480188B9A003F09EF8D1
:1052A0004FF0000A0AE090483E3010F80A10C0A003
:1052B00003F094F80AF1010000F0FF0ABAF1020FBE
:1052C000F1DB022188483E3002F042FE8146B9F10E
:1052D000010F20D1C2A003F081F8CC48FDF7AAF954
:1052E000CBA001F06DF9C82106A8FAF756FF974840
:1052F0000388D1A2C82106A803F080F806A9D4A08B
:1053000003F06CF8C148FDF795F900E00FE006A83E
:10531000FBF7F0FF08E0D5A003F060F8BB48FDF70D
:1053200089F9E2A001F04CF94FF00009002564A8CA
:10533000FAF74AFF07B25846FAF746FF0FFA80F825
:105340003B46424664A95846FDF73CFA0546002D07
:105350007ED064A8FAF738FF40F2E731081A401E01
:1053600068490844A84273D964A8FAF72DFF461982
:10537000002408E0305D302802DB305D392800DD94
:1053800003E0601CC4B2042CF4DB00BF1CB967A0AE
:1053900003F024F83CE0042C00DD042400203890C5
:1053A00039903A903B902246314638A8FAF7DCFE15
:1053B00038A803F0F7FD6549488008464088001288
:1053C000494981F8400061488178474880F8411098
:1053D00038A95FA003F002F85C48418868A002F099
:1053E000FDFF4FF0000A0AE03F48403010F80A1075
:1053F0006FA002F0F3FF0AF1010000F0FF0ABAF11A
:10540000020FF1DB03213848403002F0A1FD814654
:10541000B9F1010F23D1B4A002F0E0FF7B48FDF702
:1054200009F9BBA001F0CCF87848FDF703F9C821D1
:1054300006A8FAF7B2FE45484388BDA2C82106A8CF
:1054400002F0DCFF06A982A002F0C8FF6F4800E06E
:1054500011E0FDF7EFF806A8FBF74CFF08E0BBA052
:1054600002F0BCFF6948FDF7E5F8C7A001F0A8F815
:105470004FF0000900258AA8FAF7A6FE07B23B46BE
:105480004FF47A728AA91F48FDF79CF90546002D52
:105490000CD08AA8FAF798FE40F2E731081A0F38C4
:1054A00018490844A84201D98AA889E1E1E100002D
:1054B0002B3332220000000030A600084CA7000861
:1054C00063617369635F7365745F706172616D6559
:1054D000746572002252454320554E524541442284
:1054E00000000000CE0B0020E60000200D0A4375EE
:1054F0007272656E7450686F6E654E756D3A257385
:105500000D0A0000040800200D0A526563656976E3
:10551000652053686F7274204D65737361676520F1
:1055200069733A2025730D0A000000000D0A4D65CD
:1055300073736167652073657420696E707574207C
:105540004552524F5221210D0A000000A8000020B0
:105550000D0A2D2D2D2D2D64617461206265666FFD
:10556000726520777269746520696E20666C61735C
:1055700068212D2D2D2D25732D2D2D2D00000000A2
:105580000D0A2D2D2D2D2D64617461206265666FCD
:10559000726520777269746520696E20666C61732C
:1055A00068212D2D2D2D25642D2D2D2D0000000081
:1055B0000D0A2D2D2D2D2D64617461206265666F9D
:1055C000726520777269746520696E20666C6173FC
:1055D00068212D2D2D2D25782D2D2D2D000000003D
:1055E0000D0A537461727420436F6C6C6563745060
:1055F0006572696F642075706C6F61642073756388
:105600006365737321210D0A0000000080841E0071
:105610000D537461727420436F6C6C6563745065D4
:1056200072696F642075706C6F6164207375636359
:1056300065737321210D00000D636F6C6C656374DD
:1056400020706572696F64206973202564200D00E5
:105650000D0A53656E64206368617220746F207058
:10566000686F6E652025730D0A0000000D0A496EF3
:1056700070757420436F6C6C656374506572696FEC
:1056800064206E6F7420636F7272656374210D0AFB
:10569000506C6561736520636865636B20616E643F
:1056A0002072657472792E0D0A0000000D496E702B
:1056B000757420436F6C6C656374506572696F64B8
:1056C000206E6F7420636F7272656374210D506C6D
:1056D0006561736520636865636B20616E64207229
:1056E000657472792E0D00000D0A53746172742076
:1056F00053656E64436F756E742075706C6F616472
:10570000207375636365737321210D0A0000000027
:105710000D53656E64436F756E742075706C6F61A8
:1057200064207375636365737321210D00000000AD
:105730000D73656E6420636F756E742074696D659A
:10574000206973202564200D000000000D0A496EB9
:105750007075742053656E64436F756E74206E6F40
:105760007420636F7272656374210D0A506C6561F9
:10577000736520636865636B20616E642072657475
:1057800072792E0D0A0000000D496E707574205359
:10579000656E64436F756E74206E6F7420636F72F4
:1057A00072656374210D506C656173652063686573
:1057B000636B20616E642072657472792E0D000037
:1057C000FAF702FD4619002408E0305D302802DBBC
:1057D000305D392800DD03E0601CC4B2102CF4DB1E
:1057E00000BF0F2C01DC0B2C04DAAFF2C02002F05A
:1057F000F5FD0DE01021DD48FAF7CFFC22463146D9
:10580000DA48FAF7B1FC0421D84802F0A1FB81463E
:10581000B9F1010F21D1D6A002F0E0FDDE48FCF77E
:1058200009FFDEA000F0CCFEDB48FCF703FFC82137
:1058300006A8FAF7B2FCCD4BE2A2C82106A802F0F6
:10584000DDFD06A9AFF2F81002F0C8FDD248FCF762
:10585000F1FE06A8FBF74EFD08E0E1A002F0BEFD58
:10586000CD48FCF7E7FEEEA000F0AAFE4FF00009DD
:10587000002583A8FAF7A8FC07B23B464FF47A72DA
:1058800083A9F648FCF79EFF0546002D6BD083A840
:10589000FAF79AFC40F2E731081A1038EF49084449
:1058A000A84260D983A8FAF78FFC461900240BE0C0
:1058B000305D302802DB305D392803DD305D2E2875
:1058C00000D003E0601CC4B2102CF1DB00BF0F2C31
:1058D00001DC072C04DAAFF2AC3002F07FFD10E0FF
:1058E0001021A2481030FAF758FC224631469F4852
:1058F0001030FAF739FC05219C48103002F028FBE3
:105900008146B9F1010F22D1D5A002F067FDA2486E
:10591000FCF790FEDAA000F053FE9F48FCF78AFEE9
:10592000C82106A8FAF739FC904B1033DCA2C82135
:1059300006A802F063FD06A9AFF2EC2002F04EFDCE
:105940009548FCF777FE06A8FBF7D4FC08E0D9A041
:1059500002F044FD9048FCF76DFEE5A000F030FE3B
:105960004FF0000900257CA8FAF72EFC07B23B4651
:105970004FF47A727CA9B948FCF724FF0546002D44
:1059800068D07CA8FAF720FC40F2E731081A801FA3
:10599000B2490844A8425DD97CA8FAF715FC46191B
:1059A000002408E0305D302802DB305D392800DD5E
:1059B00003E0601CC4B2062CF4DB00BF022C01DB48
:1059C000052C04DDAFF29C4002F008FD0FE06748B3
:1059D0001038002101638186224631463030FAF7C3
:1059E000C3FB06216148203002F0B2FA8146B9F1CA
:1059F000010F23D13146CCA002F0F0FC6648FCF741
:105A000019FED2A000F0DCFD6348FCF713FEC821AC
:105A100006A8FAF7C2FB554B2033D4A2C82106A82A
:105A200002F0ECFC06A9AFF2D83002F0D7FC5A48DD
:105A3000FCF700FE06A8FBF75DFC08E0D0A002F032
:105A4000CDFC5548FCF7F6FDDCA000F0B9FD4FF0A9
:105A50000009002553A8FAF7B7FB07B23B464FF4FD
:105A60007A7253A97D48FCF7ADFE0546002D75D02E
:105A700053A8FAF7A9FB40F2E731081AC01E77498C
:105A80000844A8426AD953A8FAF79EFB4619002495
:105A90000BE0305D302802DB305D392803DD305DFE
:105AA0002E2800D003E0601CC4B2052CF1DB00BF3F
:105AB00024B9AFF2885002F091FC23E0052C00DD00
:105AC00005240020389039903A903B902246314688
:105AD00038A8FAF749FB38A803F088F923491039A8
